HDNONAIR    20170127XX1                                                                                                                                                                                .
AC8006377603CHENG                    GivenName                                         20161231                              400                                                          .
AC8007466306YIP                      GivenName                                         20161231                              400                                                          .
AC8006683695CHEN                     GivenName                                         20161231                              400                                                          .
$$000003000003000000000000000000000000                                                                                                                                                                 .