HDNONAIR    20170128SHLL                                                                                                                                                                               .
AC8006377603CHENG                    MANYU                                             20161231                                      400     SHELLHK        SHELLHK                                    .
AC8007466306YIP                      CHINGSANG                                         20161231                                      400     SHELLHK        SHELLHK                                    .
AC8006683695CHEN                     KITYIADA                                          20161231                                      400     SHELLHK        SHELLHK                                    .
$$000003000003000000000000000000000000                                                                                                                                                                 .