HDNONAIR    20170522SZ4                                                                                                                                                                                .
AC8006377603CHENG                    MOO YU                                            20161231                                      000004000903270001     SHELLHKCON000000148981931                  .
AC8007466306YIP                      CHING TANG                                        20161231                                      000004000903270001     SHELLHKCON000000171809764                  .
AC8006683695CHEN                     KIT Y) ADA                                        20161231                                      000004000903270001     SHELLHKCON000000205888550                  .
$$000003000003000000000000000000000000                                                                                                                                                                 .